{
	"_format": "sphinx-sol-ct-artifact-1",
	"merkleRoot": "0x9b0ddcaf22412988f213594033cd34f6f309f9c313bba705cbe5f05b07b3b342",
	"contractName": "HelloSphinx",
	"address": "0x0E71b0C8e76716744B08321EAD91Bc9FcA7af085",
	"abi": [
		{
			"inputs": [
				{
					"internalType": "string",
					"name": "_greeting",
					"type": "string"
				},
				{
					"internalType": "uint256",
					"name": "_number",
					"type": "uint256"
				}
			],
			"stateMutability": "nonpayable",
			"type": "constructor"
		},
		{
			"inputs": [
				{
					"internalType": "uint256",
					"name": "_myNumber",
					"type": "uint256"
				}
			],
			"name": "add",
			"outputs": [],
			"stateMutability": "nonpayable",
			"type": "function"
		},
		{
			"inputs": [],
			"name": "greeting",
			"outputs": [
				{
					"internalType": "string",
					"name": "",
					"type": "string"
				}
			],
			"stateMutability": "view",
			"type": "function"
		},
		{
			"inputs": [],
			"name": "number",
			"outputs": [
				{
					"internalType": "uint256",
					"name": "",
					"type": "uint256"
				}
			],
			"stateMutability": "view",
			"type": "function"
		}
	],
	"solcInputHash": "efa3226b7af1f21d6b3dbed3d1d1f426",
	"args": [
		"Hi",
		"2"
	],
	"bytecode": "0x608060405234801561001057600080fd5b506040516104b63803806104b683398101604081905261002f9161005b565b600061003b83826101b5565b5060015550610274565b634e487b7160e01b600052604160045260246000fd5b6000806040838503121561006e57600080fd5b82516001600160401b038082111561008557600080fd5b818501915085601f83011261009957600080fd5b8151818111156100ab576100ab610045565b604051601f8201601f19908116603f011681019083821181831017156100d3576100d3610045565b816040528281526020935088848487010111156100ef57600080fd5b600091505b8282101561011157848201840151818301850152908301906100f4565b6000928101840192909252509401519395939450505050565b600181811c9082168061013e57607f821691505b60208210810361015e57634e487b7160e01b600052602260045260246000fd5b50919050565b601f8211156101b0576000816000526020600020601f850160051c8101602086101561018d5750805b601f850160051c820191505b818110156101ac57828155600101610199565b5050505b505050565b81516001600160401b038111156101ce576101ce610045565b6101e2816101dc845461012a565b84610164565b602080601f83116001811461021757600084156101ff5750858301515b600019600386901b1c1916600185901b1785556101ac565b600085815260208120601f198616915b8281101561024657888601518255948401946001909101908401610227565b50858210156102645787850151600019600388901b60f8161c191681555b5050505050600190811b01905550565b610233806102836000396000f3fe608060405234801561001057600080fd5b50600436106100415760003560e01c80631003e2d2146100465780638381f58a1461005b578063ef690cc014610077575b600080fd5b610059610054366004610134565b61008c565b005b61006460015481565b6040519081526020015b60405180910390f35b61007f6100a6565b60405161006e919061014d565b806001600082825461009e919061019c565b909155505050565b600080546100b3906101c3565b80601f01602080910402602001604051908101604052809291908181526020018280546100df906101c3565b801561012c5780601f106101015761010080835404028352916020019161012c565b820191906000526020600020905b81548152906001019060200180831161010f57829003601f168201915b505050505081565b60006020828403121561014657600080fd5b5035919050565b60006020808352835180602085015260005b8181101561017b5785810183015185820160400152820161015f565b506000604082860101526040601f19601f8301168501019250505092915050565b808201808211156101bd57634e487b7160e01b600052601160045260246000fd5b92915050565b600181811c908216806101d757607f821691505b6020821081036101f757634e487b7160e01b600052602260045260246000fd5b5091905056fea26469706673582212203ca33a74ce91de9f1b0235eaebd433322031061778db5d11618d4babc720c97264736f6c63430008170033",
	"devdoc": {
		"kind": "dev",
		"methods": {},
		"version": 1
	},
	"userdoc": {
		"kind": "user",
		"methods": {},
		"version": 1
	},
	"storageLayout": {
		"storage": [
			{
				"astId": 3,
				"contract": "src/HelloSphinx.sol:HelloSphinx",
				"label": "greeting",
				"offset": 0,
				"slot": "0",
				"type": "t_string_storage"
			},
			{
				"astId": 5,
				"contract": "src/HelloSphinx.sol:HelloSphinx",
				"label": "number",
				"offset": 0,
				"slot": "1",
				"type": "t_uint256"
			}
		],
		"types": {
			"t_string_storage": {
				"encoding": "bytes",
				"label": "string",
				"numberOfBytes": "32"
			},
			"t_uint256": {
				"encoding": "inplace",
				"label": "uint256",
				"numberOfBytes": "32"
			}
		}
	},
	"gitCommit": "d706be90afeee7173de62990a9b561a896b3de09",
	"sourceName": "src/HelloSphinx.sol",
	"chainId": "11155111",
	"linkReferences": {},
	"deployedLinkReferences": {},
	"methodIdentifiers": {
		"add(uint256)": "1003e2d2",
		"greeting()": "ef690cc0",
		"number()": "8381f58a"
	},
	"history": []
}